:100000000C949C000C94B9000C94B9000C94B900A9
:100010000C94B9000C94B9000C94B9000C94B9007C
:100020000C94B9000C94B9000C9472030C94440421
:100030000C94B9000C94B9000C94B9000C94B9005C
:100040000C9406020C94B9000C94B9000C94B900FD
:100050000C94B9000C94B9000C94B9000C94B9003C
:100060000C94B9000C94B9000C94B9000C94B9002C
:100070000C94B9000C94B9000C94B9000C94B9001C
:100080000C94B9000C94B9000C94B9000C94B9000C
:100090000C94B9000C94B9000C94B9000C94B900FC
:1000A0000C94B9000C94B9000C94B9001C034C00DA
:1000B000550046004100200043004400430020005A
:1000C000440065006D006F000000180344006500E7
:1000D00061006E002000430061006D006500720049
:1000E000610000000403090409023E00020100C08F
:1000F000320904000001020201000524001001047D
:100100002402060524060001070582030800FF09F2
:10011000040100020A0000000705040210000507A0
:100120000583021000051201100102000008EB0314
:10013000442001000102DC0111241FBECFEFDAE0F0
:10014000DEBFCDBF11E0A0E0B1E0E6E8FBE202C017
:1001500005900D92A234B107D9F721E0A2E4B1E0F5
:1001600001C01D92AA36B207E1F70E944B020C941F
:10017000C1150C940000CF93DF93CDB7DEB7649721
:100180000FB6F894DEBF0FBECDBFC62EB72EA82E79
:10019000992E0E94CC026FE471E081E091E00E9410
:1001A000B507789486E3E82E81E0F82E8E010F5F84
:1001B0001F4F9F92AF92BF92CF92FF92EF921F93E9
:1001C0000F930E94F9120FB6F894DEBF0FBECDBF99
:1001D000D12CF80101900020E9F73197E01BF10BD9
:1001E0008D2D90E08E179F0768F4F801E80FF91F36
:1001F00080816FE471E0082E000C990B0E9493122D
:10020000D394E7CF81E091E00E94D2060E94E805F6
:10021000D0CFCF92DF92EF92FF92CF93DF93EC019A
:10022000C880D980EA80FB8020E030E04AE754E4CF
:10023000C701B6010E94211218162CF480E090E04C
:10024000AAE7B4E40EC020E030E04AE754ECC7016E
:10025000B6010E943B1187FF08C080E090E0AAE74A
:10026000B4EC88839983AA83BB83DF91CF91FF90FD
:10027000EF90DF90CF9008958F929F92AF92BF92B0
:10028000CF92DF92EF92FF920F931F93CF93DF9362
:1002900069017A016091460170914701809148019E
:1002A000909149010E94CF106093460170934701DD
:1002B000809348019093490186E491E00E940901EE
:1002C0002AE939E949E95FE3609146017091470104
:1002D00080914801909149010E9426124B015C01D6
:1002E0002AE939E949E95FE3C701B6010E9426120C
:1002F0009B01AC01C501B4010E94CF104B015C0110
:1003000020914201309143014091440150914501B7
:10031000C701B6010E94CE102AE037ED43E25CE34C
:100320000E9426129B01AC01C501B4010E94CF10AE
:100330008B01D82FC92F20E030E048E452E40E941E
:100340002112181684F020E030E048E452ECB801A5
:100350008D2F9C2F0E943B1187FF09C000E010E009
:10036000D8E4C2EC04C000E010E0D8E4C2E4C092DB
:100370004201D0924301E0924401F0924501B8015C
:100380008D2F9C2FDF91CF911F910F91FF90EF90B8
:10039000DF90CF90BF90AF909F908F9008950F9374
:1003A0001F93CF93DF938B01D82FC92F20E030E02C
:1003B00048E452E40E942112181684F020E030E054
:1003C00048E452ECB8018D2F9C2F0E943B1187FF0F
:1003D00009C000E010E0D8E4C2EC04C000E010E086
:1003E000D8E4C2E4B8018D2F9C2FDF91CF911F91EB
:1003F0000F91089554981092800081E480938100B9
:10040000EFE6F0E080818062808308951F920F9272
:100410000FB60F9211248F939F93AF93BF93809148
:100420000001882339F01092850010928400109208
:10043000000113C08091860090918700A0E0B0E099
:1004400080934B0190934C01A0934D01B0934E01CA
:1004500081E080934A0180930001BF91AF919F9109
:100460008F910F900FBE0F901F90189510924A0118
:1004700080914A018823E1F380914B0190914C01D6
:10048000A0914D01B0914E01BC01CD01615C78425B
:10049000810991090895CF93DF93CDB7DEB7A8976F
:1004A0000FB6F894DEBF0FBECDBF0E94CC026FE442
:1004B00071E081E091E00E94B507579A91E0909336
:1004C000C10083E08093BF008FEF8093D1008091C3
:1004D000C20089608093C2009093BF001092D20046
:1004E00054980E94FA017894C12CD12C760194E2A0
:1004F000A92E91E0B92E8E010F5F1F4F0E94360288
:10050000962E872E382E292E0E946F112B013C012A
:10051000C701B6010E946F11A30192010E943C0124
:100520000E9440116B017C01BB27AF2D9E2D8D2DAC
:1005300084309105A105B10520F083E090E0A0E0B2
:10054000B0E08093BF008C2DC11494E0D906E10483
:10055000F10408F08FEF8093D2002F923F928F9298
:100560009F92FF92EF92DF92CF92BF92AF921F9332
:100570000F930E94F9126FE471E0C8010E94CF123C
:1005800081E091E00E94D2060E94E8050FB6F8943F
:10059000DEBF0FBECDBFB2CF84B7877F84BF0FB69B
:1005A000F894A89580916000886180936000109213
:1005B00060000FBE90E080E80FB6F8948093610071
:1005C000909361000FBE0C94540381E091E00E946F
:1005D0000306811102C080E901C080E69BB19F70D3
:1005E000892B8BB9089581E091E00C94DC070E947F
:1005F00065030E946D03E0EEF0E0808181608083FE
:10060000E8EDF0E080818F77808319BCA7EDB0E042
:100610008C918E7F8C9380818F7E8083109260017D
:1006200008950F931F93CF93DF930E9465030E9459
:100630006D03C8EDD0E088818F77888388818068DA
:10064000888388818F7D888319BC10926101109204
:100650005D0110925F0110925E0100EE10E0F80162
:1006600080818B7F808388818160888342E060E025
:1006700080E00E94F50FE1EEF0E080818E7F8083C4
:10068000E2EEF0E0808181608083808188608083F9
:10069000F80180818E7F8083888180618883DF91EB
:1006A000CF911F910F910895E8EDF0E080818F7E4A
:1006B0008083E7EDF0E080818160808384E082BF09
:1006C00081E0809360010C941103E8EDF0E08081FB
:1006D0008E7F80831092E20008951092DA001092CB
:1006E000E10008951F920F920FB60F9211242F93DD
:1006F0003F934F935F936F937F938F939F93AF93AA
:10070000BF93EF93FF938091E10082FF0BC0809134
:10071000E20082FF07C08091E1008B7F8093E100BF
:100720000E94E7058091DA0080FF1FC08091D80009
:1007300080FF1BC08091DA008E7F8093DA00809169
:10074000D90080FF0DC080E189BD82E189BD09B477
:1007500000FEFDCF81E0809361010E94E70505C0A6
:1007600019BC109261010E94E7058091E10080FFB1
:1007700019C08091E20080FF15C08091E2008E7F59
:100780008093E2008091E20080618093E20080919A
:10079000D80080628093D80019BC85E08093610105
:1007A0000E94E7058091E10084FF30C08091E20063
:1007B00084FF2CC080E189BD82E189BD09B400FEBF
:1007C000FDCF8091D8008F7D8093D8008091E1008B
:1007D0008F7E8093E1008091E2008F7E8093E20023
:1007E0008091E20081608093E20080915D01882326
:1007F00011F084E007C08091E30087FD02C081E032
:1008000001C083E0809361010E94E7058091E100CF
:1008100083FF29C08091E20083FF25C08091E10021
:10082000877F8093E10082E08093610110925D01F7
:100830008091E1008E7F8093E1008091E2008E7FC5
:100840008093E2008091E20080618093E20042E0C8
:1008500060E080E00E94F50F8091F0008860809356
:10086000F0000E94E705FF91EF91BF91AF919F913A
:100870008F917F916F915F914F913F912F910F9049
:100880000FBE0F901F9018951F920F920FB60F92E8
:1008900011242F933F934F935F936F937F938F9385
:1008A0009F93AF93BF93CF93DF93EF93FF93C09149
:1008B000E900CF708091EC00D82FD17080FDD0E896
:1008C0001092E9008091F000877F8093F000789487
:1008D0000E9488041092E9008091F0008860809363
:1008E000F000CD2BCF70C093E900FF91EF91DF9125
:1008F000CF91BF91AF919F918F917F916F915F91B8
:100900004F913F912F910F900FBE0F901F90189510
:100910001F93CF93DF93CDB7DEB7AA970FB6F894A6
:10092000DEBF0FBECDBFE2E6F1E08091F100819322
:1009300021E0EA36F207C9F70E94F3028091E8004D
:1009400083FF2DC18091620190916301953009F47C
:1009500078C030F4913081F168F0933069F11FC1B3
:10096000983009F4E6C0993009F4F6C0963009F0E1
:1009700016C18AC0803881F0823809F010C1809198
:1009800066018F708093E9008091EB0085FB8827DA
:1009900080F91092E90006C080915E0190915F019C
:1009A000911182609091E800977F9093E800809386
:1009B000F1001092F100C8C0282F2D7F09F0EFC080
:1009C000882319F0823061F0EAC08091640181309F
:1009D00009F0E5C0933009F080E080935F012BC0FF
:1009E00080916401811127C0809166018F7009F4A4
:1009F000D6C08093E9002091EB0020FF1CC093300B
:100A000021F48091EB00806214C09091EB00906122
:100A10009093EB0021E030E0A90102C0440F551F84
:100A20008A95E2F74093EA001092EA008091EB0089
:100A300088608093EB001092E9008091E800877F46
:100A400086C08111ACC0109164011F778091E300D2
:100A50008078812B8093E3008091E800877F8093EA
:100A6000E8000E947C108091E80080FFFCCF80911C
:100A7000E30080688093E300111102C082E001C0AE
:100A800083E0809361018BC08058823008F087C07A
:100A900080916401909165018C3D53E0950779F553
:100AA00083E08A838AE289834FB7F894DE01139644
:100AB00020E03EE051E2E32FF0E050935700E49154
:100AC00020FF03C0E295EF703F5FEF708E2F90E044
:100AD000EA3010F0C79601C0C0968D939D932F5FAA
:100AE000243149F74FBF8091E800877F8093E80069
:100AF0006AE270E0CE0101960E94590C14C0AE016A
:100B00004F5F5F4F609166010E949308BC01892B83
:100B100009F445C09091E800977F9093E80089819F
:100B20009A810E94A00D8091E8008B778093E80065
:100B300036C08038A1F58091E800877F8093E80077
:100B400080915D018093F1008091E8008E77809321
:100B5000E8000E947C1023C0811121C080916401B3
:100B60009091650199270297D4F48091E800877FDE
:100B70008093E8008091640180935D010E947C1065
:100B800080915D01811106C08091E30087FD02C064
:100B900081E001C084E0809361010E94E5028091C0
:100BA000E80083FF0AC08091E800877F8093E80017
:100BB0008091EB0080628093EB00AA960FB6F894C8
:100BC000DEBF0FBECDBFDF91CF911F910895089575
:100BD000CF93809161018823A1F0C091E900CF708B
:100BE0009091EC00892F817090FD80E8C82B1092C5
:100BF000E9008091E80083FD0E948804CF70C093D3
:100C0000E900CF910895CF93DF93EC01FC0170963A
:100C10008BE0DF011D928A95E9F782E08C8389875A
:100C200083E08E8761E0CE0101960E942A1088231E
:100C300071F061E0CE0106960E942A10882339F0F7
:100C400061E0CE010B96DF91CF910C942A1080E0E9
:100C5000DF91CF910895DB01209161012430D1F41F
:100C6000FC014489558966897789452B462B472B9A
:100C700089F081818F708093E900FD01019000204F
:100C8000E9F73197BF016A1B7B0B40E050E0CD01D3
:100C90000C94450982E00895FC019B01BA01809102
:100CA0006101843089F484899589A689B789892B63
:100CB0008A2B8B2B49F091819F709093E90040E043
:100CC00050E0C9010C94450982E008950F931F93E9
:100CD000CF9320916101243001F5FC01048915892D
:100CE00026893789012B022B032BB9F0C62F81816E
:100CF0008F708093E9008091E80085FF04C0C09365
:100D0000F10080E00BC08091E8008E778093E800CE
:100D10000E949B10882399F301C082E0CF911F911C
:100D20000F910895FB01682F848595850E946606C2
:100D300021E030E0811102C020E030E088279927CF
:100D4000821B930B089520916101243049F5FC0129
:100D50004489558966897789452B462B472B01F1B4
:100D600081818F708093E9002091F3008091F200DF
:100D700090E0922B892B91F09091E8008091E8000F
:100D80008E778093E80095FD09C00E949B10811129
:100D900008C08091E8008E778093E80080E0089595
:100DA00082E0089520916101243091F4FC0144898E
:100DB000558966897789452B462B472B49F0218138
:100DC0002F702093E9002091E80020FD0C94A306E9
:100DD000089520916101243019F080E090E0089599
:100DE000FC014489558966897789452B462B472B19
:100DF000A1F386818F708093E9008091E80082FFE3
:100E0000ECCF2091F3008091F20090E0922B0097BC
:100E100031F42091E8002B772093E8000895209189
:100E2000F3008091F20090E0922B089520916101EF
:100E3000243019F08FEF9FEF0895FC014489558904
:100E400066897789452B462B472BA1F386818F70C6
:100E50008093E9008091E80082FFECCF2091F300BD
:100E60008091F20090E0922B892B21F02091F100EB
:100E700030E002C02FEF3FEF4091F3008091F2008D
:100E800090E0942B892B29F48091E8008B77809354
:100E9000E800C9010895FC01848595850E94160724
:100EA00097FF02C08EEF9FEF0895CF93DF93EC0181
:100EB0008C859D850E94160797FF0DC0809161016A
:100EC000882339F08C859D850E94D2060E94E80512
:100ED000EFCF8EEF9FEFDF91CF9108950F931F9388
:100EE000CF93DF93CDB7DEB728970FB6F894DEBF68
:100EF0000FBECDBF20916101243061F5FC01448912
:100F0000558966897789452B462B472B19F18C012A
:100F100083858F708093E90088E0ECE1F1E0DE01E9
:100F2000119601900D928A95E1F740E050E068E05B
:100F300070E0CE0101960E94450940E050E062E079
:100F400070E0C80142960E9445098091E8008E77C2
:100F50008093E80028960FB6F894DEBF0FBECDBF91
:100F6000DF91CF911F910F910895FB012EE0DB01DE
:100F70001D922A95E9F723E0238322E936E03187A1
:100F800020872BE437E0338722879587848708956D
:100F9000FB012EE0DB011D922A95E9F723E0238374
:100FA00022E936E03187208725E537E0338722873D
:100FB0009587848708950895CF93DF93EC018091FE
:100FC000E80083FFADC0888190E0209166013091F8
:100FD00067012817390709F0A3C0809163018132A6
:100FE00061F020F4803209F43FC09AC0823209F4E3
:100FF0006FC0833209F482C093C080916201813A4C
:1010000009F08EC08091E800877F8093E80080918E
:10101000E80080FFFCCF8C899D89AE89BF898093D1
:10102000F100492F5A2F6B2F77274093F100AD0124
:10103000662777274093F1008B2F9927AA27BB2794
:101040008093F100888D8093F100898D8093F10069
:101050008A8D8093F1008091E8008E778093E8007C
:10106000DF91CF910C947C1080916201813209F064
:1010700057C08091E800877F8093E8008091E80066
:1010800082FD05C0809161018111F8CF49C0309186
:10109000F1002091F1009091F1008091F1003C8BE2
:1010A0002D8B9E8B8F8B8091F100888F8091F1002A
:1010B000898F8091F1008A8F8091E8008B778093EF
:1010C000E8000E947C10CE01DF91CF910C94DB07E9
:1010D00080916201813221F58091E800877F8093C1
:1010E000E8000E947C108091640190916501998BC9
:1010F000888BCE01DF91CF910C94DB078091620148
:10110000813271F48091E800877F8093E8000E942B
:101110007C1060916401CE01DF91CF910C94DB07CC
:10112000DF91CF910895292F33272230310559F0CF
:101130002330310569F021303105E9F482E190E096
:1011400026E231E01CC08EE390E028EE30E017C0CC
:1011500099278130910549F028F0029761F4ECEA73
:10116000F0E005C0E4EEF0E002C0EAECF0E08491CB
:1011700090E09F0104C080E090E020E030E0FA01C0
:10118000318320830895EF92FF920F931F93CF93A3
:10119000DF93EC018B010E949B1081112EC0011581
:1011A000110529F0F80180819181C81BD90BE12C30
:1011B000F12C209709F18091E80085FD16C08091FF
:1011C000E8008B778093E8000115110549F0F801DC
:1011D00080819181E80EF91EF182E08285E00DC0E8
:1011E0000E949B10882329F308C08091F100219769
:1011F000FFEFEF1AFF0ADDCF80E0DF91CF911F9163
:101200000F91FF90EF900895EF92FF920F931F932D
:10121000CF93DF93EC018B010E949B1081112EC0B4
:101220000115110529F0F80180819181C81BD90BA6
:10123000E12CF12C209709F18091E80085FD16C082
:101240008091E8008E778093E8000115110549F040
:10125000F80180819181E80EF91EF182E08285E03B
:101260000DC00E949B10882329F308C01092F10042
:101270002197FFEFEF1AFF0ADDCF80E0DF91CF91DA
:101280001F910F91FF90EF900895CF92DF92EF9210
:10129000FF920F931F93CF93DF93EC018B017A01A1
:1012A0000E949B10811133C0E114F10439F0F70161
:1012B00080819181081B190BC80FD91FC12CD12C1B
:1012C0000115110519F18091E80085FD16C0809186
:1012D000E8008E778093E800E114F10449F0F7010B
:1012E00080819181C80ED91ED182C08285E00FC055
:1012F0000E949B10882321F30AC089918093F100FA
:1013000001501109FFEFCF1ADF0ADACF80E0DF9139
:10131000CF911F910F91FF90EF90DF90CF900895A4
:10132000CF92DF92EF92FF920F931F93CF93DF93B1
:10133000EC018B017A010E949B10811138C0C80119
:101340000197C80FD91FE114F10439F0F70180812A
:101350009181081B190BC81BD90BC12CD12C01156D
:10136000110521F18091E80085FD16C08091E8000B
:101370008E778093E800E114F10449F0F701808151
:101380009181C80ED91ED182C08285E010C00E9412
:101390009B10882321F30BC088818093F100219753
:1013A00001501109FFEFCF1ADF0AD9CF80E0DF919A
:1013B000CF911F910F91FF90EF90DF90CF90089504
:1013C000CF92DF92EF92FF920F931F93CF93DF9311
:1013D000EC018B017A010E949B10811133C0E11452
:1013E000F10439F0F70180819181081B190BC80FB6
:1013F000D91FC12CD12C0115110519F18091E800DC
:1014000085FD16C08091E8008B778093E800E11499
:10141000F10449F0F70180819181C80ED91ED18273
:10142000C08285E00FC00E949B10882321F30AC070
:101430008091F100899301501109FFEFCF1ADF0A63
:10144000DACF80E0DF91CF911F910F91FF90EF9065
:10145000DF90CF900895CF92DF92EF92FF920F939B
:101460001F93CF93DF93EC018B017A010E949B10B5
:10147000811138C0C8010197C80FD91FE114F104C8
:1014800039F0F70180819181081B190BC81BD90B1A
:10149000C12CD12C0115110521F18091E80085FDA9
:1014A00016C08091E8008B778093E800E114F10486
:1014B00049F0F70180819181C80ED91ED182C08286
:1014C00085E010C00E949B10882321F30BC08091FF
:1014D000F1008883219701501109FFEFCF1ADF0A2D
:1014E000D9CF80E0DF91CF911F910F91FF90EF90C6
:1014F000DF90CF900895CF92DF92EF92FF920F93FB
:101500001F93CF93DF93EC018B017A010E949B1014
:10151000811135C0E114F10439F0F7018081918126
:10152000081B190BC80FD91FC12CD12C011511058F
:1015300029F18091E80085FD16C08091E8008E7742
:101540008093E800E114F10449F0F7018081918172
:10155000C80ED91ED182C08285E011C00E949B10A6
:10156000882321F30CC0FE0184918093F100219621
:1015700001501109FFEFCF1ADF0AD8CF80E0DF91C9
:10158000CF911F910F91FF90EF90DF90CF90089532
:10159000CF92DF92EF92FF920F931F93CF93DF933F
:1015A000EC018B017A010E949B10811139C0C801A6
:1015B0000197C80FD91FE114F10439F0F7018081B8
:1015C0009181081B190BC81BD90BC12CD12C0115FB
:1015D000110529F18091E80085FD16C08091E80091
:1015E0008E778093E800E114F10449F0F7018081DF
:1015F0009181C80ED91ED182C08285E011C00E949F
:101600009B10882321F30CC0FE0184918093F1008C
:10161000219701501109FFEFCF1ADF0AD8CF80E0E0
:10162000DF91CF911F910F91FF90EF90DF90CF90BE
:101630000895CF92DF92EF92FF920F931F93CF9373
:10164000DF93EC018B017A010E949B10811136C05F
:10165000E114F10439F0F70180819181081B190B25
:10166000C80FD91FC12CD12C0115110531F1809162
:10167000E80085FD16C08091E8008E778093E80031
:10168000E114F10449F0F70180819181C80ED91E5F
:10169000D182C08285E012C00E949B10882321F372
:1016A0000DC0CE010E9470158093F100219601506B
:1016B0001109FFEFCF1ADF0AD7CF80E0DF91CF917A
:1016C0001F910F91FF90EF90DF90CF900895CF92F0
:1016D000DF92EF92FF920F931F93CF93DF93EC0172
:1016E0008B017A010E949B1081113AC0C8010197B9
:1016F000C80FD91FE114F10439F0F70180819181FD
:10170000081B190BC81BD90BC12CD12C01151105B5
:1017100031F18091E80085FD16C08091E8008E7758
:101720008093E800E114F10449F0F7018081918190
:10173000C80ED91ED182C08285E012C00E949B10C3
:10174000882321F30DC0CE010E9470158093F10013
:10175000219701501109FFEFCF1ADF0AD7CF80E0A0
:10176000DF91CF911F910F91FF90EF90DF90CF907D
:101770000895CF92DF92EF92FF920F931F93CF9332
:10178000DF93EC018B017A010E949B10811136C01E
:10179000E114F10439F0F70180819181081B190BE4
:1017A000C80FD91FC12CD12C0115110531F1809121
:1017B000E80085FD16C08091E8008B778093E800F3
:1017C000E114F10449F0F70180819181C80ED91E1E
:1017D000D182C08285E012C00E949B10882321F331
:1017E0000DC06091F100CE010E9478152196015044
:1017F0001109FFEFCF1ADF0AD7CF80E0DF91CF9139
:101800001F910F91FF90EF90DF90CF900895CF92AE
:10181000DF92EF92FF920F931F93CF93DF93EC0130
:101820008B017A010E949B1081113AC0C801019777
:10183000C80FD91FE114F10439F0F70180819181BB
:10184000081B190BC81BD90BC12CD12C0115110574
:1018500031F18091E80085FD16C08091E8008B771A
:101860008093E800E114F10449F0F701808191814F
:10187000C80ED91ED182C08285E012C00E949B1082
:10188000882321F30DC06091F100CE010E947815EC
:10189000219701501109FFEFCF1ADF0AD7CF80E05F
:1018A000DF91CF911F910F91FF90EF90DF90CF903C
:1018B000089520916801309169012617370748F093
:1018C0006115710539F42091E8002E772093E80026
:1018D00001C0B901FC0120E06115710579F1809129
:1018E00061018823F1F18530F1F18091E80083FDF9
:1018F0003CC08091E80082FD2EC08091E80080FF0E
:10190000EBCF2091F3008091F20090E0922B6115D3
:10191000710551F08830910538F421912093F10040
:10192000615071090196F3CF21E0089709F020E09A
:101930008091E8008E778093E800CECF2111CFCF41
:101940000AC080916101882361F0853061F0809147
:10195000E80083FD0AC08091E80082FFF2CF80E0BA
:10196000089582E0089583E0089581E008959B0141
:1019700021503109820F931F209168013091690134
:101980002617370748F06115710539F42091E800F2
:101990002E772093E80001C0B90140E06115710580
:1019A000A9F120916101222309F443C0253009F4F3
:1019B00042C02091E80023FD40C02091E80022FDB4
:1019C00032C02091E80020FFE9CF4091F300209140
:1019D000F20030E0342B6115710569F028303105D3
:1019E00050F4FC0140814093F1000197615071096E
:1019F0002F5F3F4FF0CF41E02830310509F040E044
:101A00002091E8002E772093E800C8CF4111C9CF7C
:101A10000AC080916101882361F0853061F0809176
:101A2000E80083FD0AC08091E80082FFF2CF80E0E9
:101A3000089582E0089583E0089581E00895611596
:101A4000710529F42091E8002B772093E800FC0130
:101A50006115710541F180916101882361F1853043
:101A600061F18091E80083FD24C08091E80082FF4D
:101A7000EFCF2091F3008091F20090E0922B892B20
:101A800031F08091F10081936150710991F780915B
:101A9000E8008B778093E800DBCF80916101882399
:101AA00051F0853051F08091E80080FFF6CF80E062
:101AB000089581E0089582E0089583E008959B01F0
:101AC00021503109820F931F6115710529F420916E
:101AD000E8002B772093E8006115710529F120912A
:101AE0006101222349F1253049F12091E80023FDCD
:101AF00021C02091E80022FFEFCF4091F300209118
:101B0000F20030E0342B232B11F32091F100FC0183
:101B1000208301976150710981F7D9CF80916101CC
:101B2000882351F0853051F08091E80080FFF6CF96
:101B300080E0089581E0089582E0089583E00895AB
:101B400020916801309169012617370748F0611527
:101B5000710539F42091E8002E772093E80001C048
:101B6000B901FC0120E06115710591F180916101DD
:101B7000882309F440C0853009F43FC08091E80013
:101B800083FD3DC08091E80082FD2FC08091E80078
:101B900080FFE9CF2091F3008091F20090E0922B3A
:101BA0006115710559F08830910540F42491209316
:101BB000F1003196615071090196F2CF21E008974A
:101BC00009F020E08091E8008E778093E800CBCF89
:101BD0002111CCCF0AC080916101882361F085304A
:101BE00061F08091E80083FD0AC08091E80082FFE7
:101BF000F2CF80E0089582E0089583E0089581E0C7
:101C00000895FB0131978E0F9F1F2091680130913D
:101C100069012617370748F06115710539F42091DD
:101C2000E8002E772093E80001C0B90140E061157B
:101C30007105A9F120916101222309F443C02530E7
:101C400009F442C02091E80023FD40C02091E80043
:101C500022FD32C02091E80020FFE9CF4091F3003F
:101C60002091F20030E0342B6115710569F02830C5
:101C7000310550F4FC0144914093F100019761500B
:101C800071092F5F3F4FF0CF41E02830310509F057
:101C900040E02091E8002E772093E800C8CF411162
:101CA000C9CF0AC080916101882361F0853061F05D
:101CB0008091E80083FD0AC08091E80082FFF2CFA6
:101CC00080E0089582E0089583E0089581E008951A
:101CD000CF92DF92EF92FF920F931F93CF93DF93F8
:101CE000EB0120916801309169012617370740F018
:101CF000209739F42091E8002E772093E80001C066
:101D0000E9016C0120E02097E1F1809161018823D5
:101D100009F44AC0853009F449C08091E80083FD88
:101D200047C08091E80082FD39C08091E80080FFC3
:101D3000EACF8091F3000091F20010E0182B7801B7
:101D4000C701801B910B8C0D9D1D209769F038E019
:101D5000E316F10448F40E9470158093F100219776
:101D60002FEFE21AF20AECCF21E038E0E316F1049B
:101D700009F020E03091E8003E773093E8006C01F4
:101D8000C2CF2111C2CF0AC080916101882361F0C6
:101D9000853061F08091E80083FD0AC08091E80001
:101DA00082FFF2CF80E005C082E003C083E001C083
:101DB00081E0DF91CF911F910F91FF90EF90DF9025
:101DC000CF900895CF92DF92EF92FF920F931F93DF
:101DD000CF93DF93EB016B0121E0C21AD108C80E4B
:101DE000D91E80916801909169018617970740F08C
:101DF000209739F48091E8008E778093E80001C045
:101E0000EC0120E02097E9F180916101882309F439
:101E10004BC0853009F44AC08091E80083FD48C07A
:101E20008091E80082FD3AC08091E80080FFEACF0F
:101E30008091F3000091F20010E0182B7E01C701A1
:101E40008C1B9D0B8C0D9D1DE114F10469F0083075
:101E5000110550F40E9470158093F10081E0E81A9A
:101E6000F1080F5F1F4FEBCF21E00830110509F09B
:101E700020E03091E8003E773093E8006C01E70104
:101E8000C1CF2111C1CF0AC080916101882361F0C7
:101E9000853061F08091E80083FD0AC08091E80000
:101EA00082FFF2CF80E005C082E003C083E001C082
:101EB00081E0DF91CF911F910F91FF90EF90DF9024
:101EC000CF9008950F931F93CF93DF93EB0120974B
:101ED00029F42091E8002B772093E8008C012097CB
:101EE00059F180916101882379F1853079F18091F0
:101EF000E80083FD27C08091E80082FFF0CF2091A9
:101F0000F3008091F20090E0922B892B49F06091D0
:101F1000F100C8010E9478150F5F1F4F219779F7D4
:101F20008091E8008B778093E800D9CF80916101A0
:101F3000882351F0853051F08091E80080FFF6CF82
:101F400080E005C081E003C082E001C083E0DF9152
:101F5000CF911F910F9108950F931F93CF93DF930C
:101F6000EB018B0101501109080F191F209729F46B
:101F70008091E8008B778093E800209731F1809181
:101F80006101882351F1853051F18091E80083FD92
:101F900022C08091E80082FFF0CF2091F300809171
:101FA000F20090E0922B892B19F36091F100C801A7
:101FB0000E94781501501109219779F7D9CF8091A6
:101FC0006101882351F0853051F08091E80080FF55
:101FD000F6CF80E005C081E003C082E001C083E06D
:101FE000DF91CF911F910F910895982F973068F549
:101FF0009093E900981739F07091EC002091ED0072
:102000005091F00003C0242F762F50E021FD02C034
:102010009F5FECCF3091EB003E7F3093EB0030912F
:10202000ED003D7F3093ED003091EB003160309357
:10203000EB007093EC002093ED005093F0002091A2
:10204000EE0027FDE5CF80E008958F708093E900D2
:1020500081E008950F931F93CF93DF93062FEC0138
:1020600010E0101779F16881611103C01F5F259698
:10207000F8CF2C81A981BA819B81862F8F70873000
:1020800010F080E020C0223010F442E001C046E0B1
:10209000E8E0F0E020E0EA17FB0720F42F5FEE0F06
:1020A000FF1FF9CF2295207F422B50E4959F90018E
:1020B0001124661F6627661F622B0E94F50F81118F
:1020C000D5CFDFCF81E0DF91CF911F910F910895A0
:1020D0001092F40080E08093E9001092F0001092DA
:1020E000E8001092ED009091EB009E7F9093EB0042
:1020F0008F5F873081F708958091620187FF11C05B
:102100008091E80082FD05C0809161018111F8CFC6
:1021100011C08091E8008B770BC08091610188230A
:1021200049F08091E80080FFF8CF8091E8008E7739
:102130008093E80008952091E4003091E50095E651
:102140004091EC00842F817040FF23C08091E80013
:1021500080FD1DC080916101882399F0853099F040
:102160008091EB0085FD11C04091E4005091E500A5
:102170002417350729F3915011F09A01E1CF84E03B
:10218000089582E0089583E0089581E0089580E055
:1021900008954091E80042FFDDCF08955058BB27D5
:1021A000AA270E94E6100C94E7110E94D91138F07A
:1021B0000E94E01120F039F49F3F19F426F40C94AA
:1021C000D6110EF4E095E7FB0C94D011E92F0E9494
:1021D000F81158F3BA17620773078407950720F0C0
:1021E00079F4A6F50C941A120EF4E0950B2EBA2F82
:1021F000A02D0B01B90190010C01CA01A00111240D
:10220000FF27591B99F0593F50F4503E68F11A16B8
:10221000F040A22F232F342F4427585FF3CF469549
:1022200037952795A795F0405395C9F77EF41F166B
:10223000BA0B620B730B840BBAF09150A1F0FF0F35
:10224000BB1F661F771F881FC2F70EC0BA0F621F21
:10225000731F841F48F4879577956795B795F79511
:102260009E3F08F0B0CF9395880F08F09927EE0FA6
:102270009795879508950E94AC1108F481E0089520
:102280000E94001288F09F5798F0B92F9927B751F4
:10229000B0F0E1F0660F771F881F991F1AF0BA950A
:1022A000C9F714C0B13091F00E941A12B1E008953C
:1022B0000C941A12672F782F8827B85F39F0B93F2E
:1022C000CCF3869577956795B395D9F73EF49095BD
:1022D0008095709561957F4F8F4F9F4F0895E8943B
:1022E00009C097FB3EF490958095709561957F4F5E
:1022F0008F4F9F4F9923A9F0F92F96E9BB2793950C
:10230000F695879577956795B795F111F8CFFAF41B
:10231000BB0F11F460FF1BC06F5F7F4F8F4F9F4F4C
:1023200016C0882311F096E911C0772321F09EE8AA
:10233000872F762F05C0662371F096E8862F70E010
:1023400060E02AF09A95660F771F881FDAF7880FEA
:102350009695879597F90895990F0008550FAA0B40
:10236000E0E8FEEF16161706E807F907C0F01216A8
:102370001306E407F50798F0621B730B840B950BAB
:1023800039F40A2661F0232B242B252B21F4089500
:102390000A2609F4A140A6958FEF811D811D08959D
:1023A00097F99F6780E870E060E008959FEF80EC08
:1023B000089500240A9416161706180609060895AB
:1023C00000240A9412161306140605060895092E11
:1023D0000394000C11F4882352F0BB0F40F4BF2B80
:1023E00011F460FF04C06F5F7F4F8F4F9F4F0895C0
:1023F00057FD9058440F551F59F05F3F71F04795B6
:10240000880F97FB991F61F09F3F79F0879508959A
:10241000121613061406551FF2CF4695F1DF08C0B9
:10242000161617061806991FF1CF869571056105D6
:1024300008940895E894BB2766277727CB0197F97E
:1024400008950E94AC1108F48FEF08950E9439128C
:102450000C94E7110E94D91138F00E94E01120F08D
:10246000952311F00C94D0110C94D61111240C94D6
:102470001B120E94F81170F3959FC1F3950F50E065
:10248000551F629FF001729FBB27F00DB11D639F26
:10249000AA27F00DB11DAA1F649F6627B00DA11DCC
:1024A000661F829F2227B00DA11D621F739FB00D72
:1024B000A11D621F839FA00D611D221F749F3327E2
:1024C000A00D611D231F849F600D211D822F762F7B
:1024D0006A2F11249F5750409AF0F1F088234AF058
:1024E000EE0FFF1FBB1F661F771F881F91505040C4
:1024F000A9F79E3F510580F00C94D0110C941B124B
:102500005F3FE4F3983ED4F3869577956795B7954A
:10251000F795E7959F5FC1F7FE2B880F911D969564
:10252000879597F908950F931F93CF93DF93FB013E
:10253000238121FD03C08FEF9FEF2CC022FF16C027
:1025400046815781248135814217530744F4A08185
:10255000B1819D012F5F3F4F318320838C93268172
:1025600037812F5F3F4F3783268314C08B01EC01E7
:10257000FB010084F185E02D0995892BE1F6D80156
:1025800016968D919C911797019617969C938E9312
:102590001697CE01DF91CF911F910F910895EF9281
:1025A000FF920F931F93CF93DF93DB0113962C9130
:1025B00021FF18C08B017C01D0E0C0E0F7018191C0
:1025C0007F01882361F0D8011896ED91FC9119974D
:1025D000B8010995892B91F3DFEFCFEFEFCF8D2F66
:1025E0009C2F02C08FEF9FEFCDB7DEB7E6E00C94D3
:1025F000B215AEE0B0E0EFEFF2E10C9498150D8962
:102600001E8986E08C831A8309838FEF9FE79E8360
:102610008D83AE01475E5F4F6F89788DCE01019645
:102620000E941B13EF81F885E00FF11F10822E9698
:10263000E4E00C94B415ABE0B0E0E1E2F3E10C941B
:102640008A156C017B018A01FC0117821682838145
:1026500081FFCCC1CE0101963C01F6019381F701C7
:1026600093FD859193FF81917F01882309F4BAC17D
:10267000853239F493FD859193FF81917F018532F5
:1026800029F4B60190E00E949312E7CF912C212CFF
:10269000312CFFE1F315D8F08B3279F038F4803229
:1026A00079F08332A1F4232D20611DC08D3261F0B9
:1026B000803369F4232D216016C0832D8260382E6B
:1026C000E32DE4603E2E2AC0F32DF8601DC037FCD8
:1026D0002DC020ED280F2A3040F08E32B9F436FCA0
:1026E00081C1232D2064322E19C036FE06C08AE037
:1026F000989E200D1124922E11C0EAE02E9E200DEE
:102700001124222EF32DF0623F2E08C08C3621F4C6
:10271000832D8068382E02C0883641F4F70193FD7E
:10272000859193FF81917F018111B3CF982F9F7D78
:102730009554933028F40C5F1F4F9FE399830DC08D
:10274000833631F0833771F0833509F059C021C0E9
:10275000F801808189830E5F1F4F88248394912C18
:10276000530113C02801F2E04F0E511CF801A08064
:10277000B18036FE03C0692D70E002C06FEF7FEFBD
:10278000C5010E9407154C018201F32DFF773F2EF2
:1027900016C0280122E0420E511CF801A080B18031
:1027A00036FE03C0692D70E002C06FEF7FEFC501F8
:1027B0000E94FC144C01F32DF0683F2E820133FC83
:1027C0001BC0822D90E088169906B0F4B60180E215
:1027D00090E00E9493122A94F4CFF50137FC859182
:1027E00037FE81915F01B60190E00E9493122110A3
:1027F0002A9421E0821A91088114910471F7E8C0AB
:10280000843611F0893641F5F80137FE07C0608142
:102810007181828193810C5F1F4F08C0608171813B
:10282000072E000C880B990B0E5F1F4FF32DFF76C0
:102830003F2E97FF09C090958095709561957F4FC9
:102840008F4F9F4FF0683F2E2AE030E0A3010E9497
:102850001215882E861845C0853731F4232D2F7E1A
:10286000B22E2AE030E025C0932D997FB92E8F3605
:10287000C1F018F4883579F0B5C0803719F0883781
:1028800021F0B0C0E92FE061BE2EB4FE0DC0FB2DDB
:10289000F460BF2E09C034FE0AC0292F2660B22E74
:1028A00006C028E030E005C020E130E002C020E1B1
:1028B00032E0F801B7FE07C06081718182819381A7
:1028C0000C5F1F4F06C06081718180E090E00E5F59
:1028D0001F4FA3010E941215882E8618FB2DFF772B
:1028E0003F2E36FE0DC0232D2E7FA22E891458F4C4
:1028F00034FE0BC032FC09C0832D8E7EA82E05C08D
:10290000B82CA32C03C0B82C01C0B92CA4FE0FC056
:10291000FE01E80DF11D8081803321F49A2D997E0E
:10292000A92E09C0A2FE06C0B394B39404C08A2D98
:10293000867809F0B394A3FC11C0A0FE06C0B214BF
:1029400088F4280C922C9B180EC0B21460F4B601C7
:1029500080E290E00E949312B394F7CFB21418F47F
:102960002B1802C0982C212CA4FE10C0B60180E3C5
:1029700090E00E949312A2FE17C0A1FC03C088E75A
:1029800090E002C088E590E0B6010CC08A2D867800
:1029900059F0A1FE02C08BE201C080E2A7FC8DE2EB
:1029A000B60190E00E949312891438F4B60180E3D6
:1029B00090E00E9493129A94F7CF8A94F301E80D65
:1029C000F11D8081B60190E00E9493128110F5CF35
:1029D000222009F442CEB60180E290E00E949312D8
:1029E0002A94F6CFF6018681978102C08FEF9FEF80
:1029F0002B96E2E10C94A615FC0105906150704005
:102A00000110D8F7809590958E0F9F1F0895FC01B7
:102A10006150704001900110D8F7809590958E0F0D
:102A20009F1F0895FA01AA27283051F1203181F122
:102A3000E8946F936E7F6E5F7F4F8F4F9F4FAF4FC6
:102A4000B1E03ED0B4E03CD0670F781F891F9A1FD9
:102A5000A11D680F791F8A1F911DA11D6A0F711D8D
:102A6000811D911DA11D20D009F468943F912AE099
:102A7000269F11243019305D3193DEF6CF01089581
:102A8000462F4770405D4193B3E00FD0C9F7F6CFB2
:102A9000462F4F70405D4A3318F0495D31FD40527A
:102AA000419302D0A9F7EACFB4E0A6959795879510
:102AB00077956795BA95C9F70097610571050895EF
:102AC0009B01AC010A2E069457954795379527959B
:102AD000BA95C9F7620F731F841F951FA01D089533
:102AE000F999FECF92BD81BDF89A992780B50895D6
:102AF000262FF999FECF92BD81BDF89A019700B4B7
:102B0000021639F01FBA20BD0FB6F894FA9AF99A56
:102B10000FBE08952F923F924F925F926F927F92D5
:102B20008F929F92AF92BF92CF92DF92EF92FF92DD
:102B30000F931F93CF93DF93CDB7DEB7CA1BDB0B89
:102B40000FB6F894DEBF0FBECDBF09942A8839882E
:102B500048885F846E847D848C849B84AA84B98435
:102B6000C884DF80EE80FD800C811B81AA81B98141
:102B7000CE0FD11D0FB6F894DEBF0FBECDBFED0155
:062B80000895F894FFCF58
:102B8600010083100000010410000001820800000B
:102B9600010000000000000000000000A12000006D
:102BA60000000200436D643A256C64204572723A57
:102BB600256C640D0A00465F4552523A256C640A3C
:022BC60000000D
:00000001FF
